:040000000DEF00F010
:04000800A2EF0BF068
:06001800FF00C3EF0CF035
:1015000000EA170000000080180000000000000042
:1015100000000000000000000000000000000000CB
:10152000000000000000000000DE19C219A619002A
:1015300000003550020D010EF324D96E050EF42083
:10154000DA6EDE6ADD6A0201C5A7A9EF0AF0ABEF29
:101550000AF0C9EF0AF03550020D010EF324D96EDE
:10156000050EF420DA6EDF8229502A10D8B4BBEFC2
:101570000AF0BDEF0AF0C9EF0AF002D8C9EF0AF08D
:101580000500FA6E2950FD6E2A50FE6EFF6AFA5071
:1015900012000201C5A3CFEF0AF0D1EF0AF0EFEF7E
:1015A0000AF03550020D010EF324D96E050EF42019
:1015B000DA6EDF8427502810D8B4E1EF0AF0E3EFA9
:1015C0000AF0EFEF0AF002D8EFEF0AF00500FA6E2A
:1015D0002750FD6E2850FE6EFF6AFA501200B4C20A
:1015E0003AF5540E3A18D8A4F8EF0AF0FAEF0AF0D8
:1015F0000DEF0BF0010142BF00EF0BF003EF0BF01A
:10160000010E04EF0BF0000EFF0A396E3932393249
:10161000425139187F0B3918426F3528070B3B6E42
:1016200034503B18D8A417EF0BF019EF0BF01BEF59
:101630000BF026EF0BF0110E3524D96EDA6A050E89
:10164000DA223AC5DFF43BC535F5332A1200000E25
:101650000101406F000E416F000E426F000E436F9C
:10166000000E446F000E456F4869EF0E496F7F0E04
:101670004A6F4B690F0E4C6F4D69FE0E0401006FEF
:10168000CF0E086F7F0E106F1869070E206F286944
:10169000010E016F000E096F000E116F000E196F21
:1016A000000E216F000E296F000E026F000E0A6FF0
:1016B000000E126F000E1A6F000E226F000E2A6FBE
:1016C00003690B6913691B69070E236F2B69046992
:1016D0000C6914691C690F0E246F2C69000E02013D
:1016E000866F000E856F000E886F000E876F0D0EDF
:1016F000746F180E0D6F000E0401056F010E066F5A
:10170000000E076F000E3D6F000E3E6F000E3F6F24
:10171000000E0D6F000E0E6F000E0F6F000E156F96
:10172000000E166F000E176F000E256F000E266F4D
:10173000000E276F580E3E6E1A0E3F6E18EC0DF01D
:10174000A78E1200FAC43CF5FBC43DF5A7AEABEF83
:101750000BF0ADEF0BF0B8EF0BF0B2AEB2EF0BF059
:10176000B4EF0BF0B8EF0BF0FDEC0CF0F0EF0BF07A
:10177000AFA2BDEF0BF0BFEF0BF0D4EF0BF0BAA2AE
:10178000C4EF0BF0C6EF0BF0D4EF0BF002D8D2EFA2
:101790000BF00500FA6E4450FD6E4550FE6EFF6A78
:1017A000FA501200F0EF0BF0AFA0D9EF0BF0DBEF27
:1017B0000BF0F0EF0BF0BAA0E0EF0BF0E2EF0BF064
:1017C000F0EF0BF002D8EEEF0BF00500FA6E42508E
:1017D000FD6E4350FE6EFF6AFA501200F0EF0BF000
:1017E0003DC5FBF43CC5FAF41100AF90320E426ED9
:1017F000150E436EAF92CA0E446E180E456E000E63
:101800000201B46F000EB66F000EB86F000EBA6F13
:10181000000EBC6FB00EBE6F800EBF6F000EC06FAB
:10182000190EC16F000EC26F2E0EC36F000EC46F73
:10183000800EC56F000EC66F620E3E6E1A0E3F6EB2
:10184000EFEC0CF0600E3E6E1A0E3F6EE1EC0CF009
:10185000000E3E6E000E3F6ED3EC0CF0000E2C6EB0
:10186000000E2B6E000E386E000E376E080E366EB0
:10187000000E356E000E346E000E336EAF80120017
:101880003A6EAFB246EF0CF048EF0CF04CEF0CF0B4
:101890003AC5B6F263EF0CF03650D8B452EF0CF004
:1018A00054EF0CF063EF0CF0190E3824D96EDA6A9D
:1018B000050EDA223AC5DFF43828070B396E39C530
:1018C00038F5AF923606AF821200080E36606BEF25
:1018D0000CF06DEF0CF07EEF0CF0190E3724D96E82
:1018E000DA6A050EDA22DF500201B66F3728070BDD
:1018F000396E39C537F5362A7FEF0CF0AF921200FA
:10190000D69AB390D680000E3E6E000E3F6E27EC46
:101910000DF0B890D682000E3E6E000E3F6E22ECA7
:101920000DF0BC90D684000E3E6E000E3F6E1DEC96
:101930000DF0120040504110D8B4A1EF0CF0A3EF0D
:101940000CF0AFEF0CF002D8AFEF0CF00500FA6E20
:101950004050FD6E4150FE6EFF6AFA5012000401C5
:1019600007911200620E0001AD6F000EAF6F000E06
:10197000B36F020EB16F000EB06F000EAC6F000EB1
:101980000401586F120001EE01F1380EEE6AE8060C
:10199000FDE10401080E5D6F000E5E6F000E5F6FCB
:1019A000000111EF0DF03E503F10D8B4DAEF0CF00B
:1019B000DCEF0CF0E0EF0CF03EC525F53FC526F559
:1019C00012003E503F10D8B4E8EF0CF0EAEF0CF0F4
:1019D000EEEF0CF03EC527F53FC528F512003E504E
:1019E0003F10D8B4F6EF0CF0F8EF0CF0FCEF0CF071
:1019F0003EC529F53FC52AF51200040107A103EFF2
:101A00000DF005EF0DF007EF0DF09AEC0CF0120061
:101A1000B2EC0CF027EC0BF0F5EC0BF080EC0CF0DA
:101A2000120008EC0DF0D68E14EF0DF00DEF00F063
:101A30003EC540F53FC541F512003EC52DF53FC5F9
:101A40002EF512003EC52FF53FC530F512003EC5FC
:101A500031F53FC532F51200530E40EC0CF0120088
:041A6000120012005E
:020000040030CA
:0B000000FFFFF7FF9FFF7FFFFFFFFFE8
:00000001FF
